:020000040000FA
:060000000A128A110C280F
:10000800FE00030EF2000A08F3000A128A115629AC
:100018000A128A110F28F501F601F701F801831277
:100028000313BA01BB01BC01BD01BE01BF01C00180
:10003800C101C201C30183010A128A11FE28831279
:1000480003133208031D29282A2859282E08B3002B
:100058002F08B4003008B5003108B6000630031088
:10006800B30DB40DB50DB60DFF3E031D332836088C
:10007800A3003508A2003408A1003308A00000300E
:10008800A7003D30A6000930A5000030A4000A12E0
:100098008A1196200A128A11831203132008FF3E40
:1000A800831603139900181187282E08B3002F0808
:1000B800B4003008B5003108B60004300310B30DA1
:1000C800B40DB50DB60DFF3E031D62283608A3001A
:1000D8003508A2003408A1003308A0000030A700AA
:1000E8003D30A6000930A5000030A4000A128A118C
:1000F80096200A128A11831203132008FF3E8316E2
:10010800031399001815181398161812831203135D
:1001180098171813181618119810831603138717B1
:1001280007130800003083120313AC000030AB0043
:100138000030AA000030A90023082204210420046A
:100148000319A728A828F528AD01AD0AB828013059
:10015800A8000310A00DA10DA20DA30DA80BAD289A
:100168000130A8002808AD07A31FBB28BC28AB286E
:100178000130A8000310A90DAA0DAB0DAC0DA80BFA
:10018800BE2823082702031DD32822082602031DA0
:10019800D32821082502031DD32820082402031C84
:1001A800D628D728E6282008A4022108031C210FF6
:1001B800A5022208031C220FA6022308031C230FF2
:1001C800A702291401300310A30CA20CA10CA00C47
:1001D800FF3E031DE7280130AD02031DF428F52872
:1001E800BC282C08A3002B08A2002A08A100290873
:1001F800A0000800831603178801890100308312C4
:100208000313B1000030B0002530AF008030AE00DD
:10021800B201B20A0A128A1123200A128A118B1714
:100228000B17831603138C160713871705108510F1
:100238008312031305108510B801B9017C300A1226
:100248008A11CD210A128A11053083120313B700CF
:100258003708A10001300A128A1193210A128A1163
:10026800831203133908803AFF0080307F02031D90
:100278003F29153038020318422943294E290130F5
:100288008312031385000130B8070318B90A003038
:10029800B9072229023083120313850022290A1282
:1002A8008A110C28831203138C1E5B295C298C2964
:1002B8000A128A11DB210A128A11F1007108F4006E
:1002C80041307406031D69296A296E2983120313B4
:1002D8000510851042307406031D73297429782986
:1002E800831203130514851043307406031D7D29FA
:1002F8007E2982298312031305108514443074065D
:10030800031D872988298C29831203130514851452
:1003180073088A00720E8300FE0E7E0E0900831297
:100328000313A300A401A501A401A501B029240871
:10033800230784000A128A11E9210A128A110A1273
:100348008A11CD210A128A11013083120313A407DE
:100358000318A50A0030A5072508803AA2008030B6
:100368002202031DB929210824020318BC29BD292A
:10037800CC29831203132408230784000A128A1144
:10038800E9210A128A11003A031DCB29CC299B299D
:10039800080083120313A00083160313981CD529A1
:1003A800D629D029831203132008990008000A12BD
:1003B8008A11F2210A128A11003A0319E429E5295F
:1003C800DB29831203131A08080001308A00040885
:1003D800840A8207003453343134003483120313FF
:0A03E8000C0EF000700C0139080043
:04400E00D420FF3F7C
:00000001FF
