:020000040000FA
:060000000A128A110E280D
:10000800FE00030EF2000408F3000A08F4000A12C6
:100018008A1587280A128A11112883120313E60108
:10002800E701E8018313A0308400BD300A128A1169
:10003800F8270A128A1183010A128A15C62C83121C
:10004800031331088039B6003608BB003108B60002
:100058003607B7003708C100B01F332834283528C1
:1000680041144108031939283A284928410A031D2F
:100078003E283F2847280030B1000030B00000304B
:10008800AF000030AE00B01751280030B10000308A
:10009800B0000030AF000030AE0035088039B6003F
:1000A8003608BB063508B6003607B7003708C00063
:1000B800B41F5F2860286128401440080319652888
:1000C80066287528400A031D6A286B2873280030A3
:1000D800B5000030B4000030B3000030B200B417EF
:1000E8007D280030B5000030B4000030B300003087
:1000F800B200400803198128822887284108031D77
:100108008628872890280030B1000030B0000030E1
:10011800AF000030AE00832B2E08B6003608F6007C
:1001280034080A168A11D7270A128A117708831207
:100138000313C7007608C6004608B600B701B80121
:10014800B9013908BF003808BE003708BD003608B5
:10015800BC004708B600B701B801B9013908C500A5
:100168003808C4003708C3003608C2002F08B60094
:100178003608F60033080A168A11D7270A128A1198
:10018800770883120313C7007608C6004608B6002E
:10019800B701B801B9013608BC07370803110318BD
:1001A800013E0319D828BD07380803110318013E7A
:1001B8000319DF28BE07390803110318013E031984
:1001C800E628BF074708B600B701B801B9013608E5
:1001D800C207370803110318013E0319F428C3079F
:1001E800380803110318013E0319FB28C40739080E
:1001F80003110318013E03190229C5073008B60088
:100208003608F60032080A168A11D7270A128A1108
:10021800770883120313C7007608C6004608B6009D
:10022800B701B801B9013608BC073708031103182C
:10023800013E03192029BD07380803110318013EA0
:1002480003192729BE07390803110318013E0319AA
:100258002E29BF074708B600B701B801B90136080B
:10026800C207370803110318013E03193C29C307C5
:10027800380803110318013E03194329C407390834
:1002880003110318013E03194A29C5070830B600AF
:100298000310BC0DBD0DBE0DBF0DB60B4C292F08AC
:1002A800B6003608F60032080A168A11D7270A124D
:1002B8008A11770883120313C7007608C600460818
:1002C800B6004708B700B801B9013608BC073708B7
:1002D80003110318013E03197229BD0738080311D9
:1002E8000318013E03197929BE07390803110318B9
:1002F800013E03198029BF072E08B6003608F6000C
:1003080033080A168A11D7270A128A117708831226
:100318000313C7007608C6004608B6004708B700AA
:10032800B801B9013608BC07370803110318013EA4
:1003380003199F29BD07380803110318013E031943
:10034800A629BE07390803110318013E0319AD2970
:10035800BF070830B6000310BC0DBD0DBE0DBF0DA4
:10036800B60BAF292E08B6003608F60032080A1672
:100378008A11D7270A128A11770883120313C70034
:100388007608C6004608B6004708B700B801B901A4
:100398003608BC07370803110318013E0319D5298D
:1003A800BD07380803110318013E0319DC29BE07ED
:1003B800390803110318013E0319E329BF072F0861
:1003C800B6003608F60034080A168A11D7270A122A
:1003D8008A11770883120313C7007608C6004608F7
:1003E800B6004708B700B801B9013608C207370890
:1003F80003110318013E0319022AC3073808031121
:100408000318013E0319092AC40739080311031800
:10041800013E0319102AC5073008B6003608F60051
:1004280033080A168A11D7270A128A117708831205
:100438000313C7007608C6004608B6004708B70089
:10044800B801B9013608C207370803110318013E7D
:1004580003192F2AC307380803110318013E03198B
:10046800362AC407390803110318013E03193D2A27
:10047800C5073008B6003608F60034080A168A118F
:10048800D7270A128A11770883120313C700760840
:10049800C6004608B6004708B700B801B9010830D9
:1004A8000310B60DB70DB80DB90DFF3E031D542A44
:1004B8003608C207370803110318013E0319652AD5
:1004C800C307380803110318013E03196C2AC4072F
:1004D800390803110318013E0319732AC5073C089C
:1004E800B6003D08B7003E08B8003F08B90018300C
:1004F8000310B90CB80CB70CB60CFF3E031D7C2AD0
:100508003608C207370803110318013E03198D2A5C
:10051800C307380803110318013E0319942AC407B6
:10052800390803110318013E03199B2AC50708302F
:10053800B6000310BC0DBD0DBE0DBF0DB60B9D2A38
:1005480041084007B600B701B70D3608823EC6001D
:1005580037080318013EFF3EC700CF2A0130B60016
:100568000310C20DC30DC40DC50DB60BB42ABF1FB1
:10057800BE2ABF2AC02A42140130B6000310BC0D9F
:10058800BD0DBE0DBF0DB60BC22AFF30C60703183E
:10059800C70AFF30C707C41FD22AD32AB22AC0010C
:1005A800BF1FD72AD82AF42AFF303C05B600FF30EF
:1005B8003D05B700FF303E05B8007F303F05B90064
:1005C80039083804370436040319EB2AEC2AEF2AD1
:1005D800C001C00AF42A421CF22AF32AF42AEC2A9F
:1005E80040080319F82AF92A2A2B0130C2070030DB
:1005F80003180130C307003003180130C407003066
:1006080003180130C507451C0A2B0B2B2A2B42085F
:10061800B6004308B7004408B8004508B9000130DF
:10062800BA00390DB90CB80CB70CB60CBA0B152BAF
:100638003908C5003808C4003708C3003608C200A6
:100648000130C6070318C70A0030C7074708803AB1
:10065800FF0080307F02031D332BFF304602031C4E
:10066800362B372B422B7F3083120313C500803083
:10067800C4000030C3000030C200772B831203137C
:100688004708803AFF0080307F02031D4D2B013060
:1006980046020318502B512B5D2B00308312031395
:1006A800C5000030C4000030C3000030C200BB01E8
:1006B800772B831203134608B6003608C100FF30B3
:1006C800C205FF30C3057F30C4050030C505411C95
:1006D8006E2B6F2B702BC4174108B6000310360C15
:1006E800B7003708C5003B08B6003608C5044508FA
:1006F800B1004408B0004308AF004208AE0008004B
:100708008312031323088039A8002808B00023089F
:10071800A8002807A9002908B200A21F942B952B2E
:10072800962B3214320803199A2B9B2BAB2B320AC7
:10073800031D9F2BA02BA82B0030A3000030A20084
:100748000030A1000030A000A217A301B32B003095
:10075800A3000030A2000030A1000030A00027084C
:100768008039A8002808B100310830060319BD2BCC
:10077800BE2BBF2B30172708A8002807A900290877
:10078800B100A61FC82BC92BCA2B31143108031975
:10079800CE2BCF2BDF2B310A031DD32BD42BDC2BF5
:1007A8000030A7000030A6000030A5000030A400EB
:1007B800A617A701E72B0030A7000030A6000030DD
:1007C800A5000030A400320831020318EC2BED2BF1
:1007D800312C301FF02BF12BF52B8030A800280886
:1007E800B0063208A8002808B3003108A800280875
:1007F800B2003308A8002808B1002008A80028087B
:10080800B3002408A8002808A0003308A800280876
:10081800A4002108A8002808B3002508A800280873
:10082800A1003308A8002808A5002208A800280865
:10083800B3002608A8002808A2003308A800280842
:10084800A6002308A8002808B3002708A80028083D
:10085800A3003308A8002808A700B3013108A8009E
:10086800A9012908AB0032082802AA00031CAB031F
:100878002B08803AFF0080307F02031D452C1A3078
:100888002A02031C482C492C862C831203132308A4
:10089800220421042004031D522C542C0130552C11
:1008A8000030A8002808B3000030A3000030A200E0
:1008B8000030A1000030A0003108A8002808B200CC
:1008C8008E2C331C682C692C722C3308A80003105A
:1008D800280C0138A9002908B300742C0310B30CA4
:1008E800201C772C782C792CB3170130A800230D05
:1008F800A30CA20CA10CA00CA80B7B2C0130A80007
:100908002808B2078312031331083202031C8D2C06
:100918008E2C652C301B912C922CDD2C3208031D5B
:10092800962C972CA02C0030A3000030A200003099
:10093800A1000030A0000B2E2408A00725080311F1
:100948000318013E0319A92CA1072608031103184F
:10095800013E0319B02CA207270803110318013E12
:100968000319B72CA307231CBA2CBB2C912D331CBD
:10097800BE2CBF2CC82C3308A8000310280C013843
:10098800A9002908B300CA2C0310B30C201CCD2CD5
:10099800CE2CCF2CB3170130A800230DA30CA20C2A
:1009A800A10CA00CA80BD12C0130A8002808B20774
:1009B800912D2308803AFF002708803A7F02031D03
:1009C800EF2C26082202031DEF2C25082102031D07
:1009D800EF2C240820020318F22CF32C4B2DFF30A7
:1009E800A800FF30A900FF30AA00FF30AB002408A0
:1009F800AC002508AD002608AE002708AF00200887
:100A0800AC022108031C210F0A2D0B2DAD02220870
:100A1800031C220F102D112DAE022308031C230FD7
:100A2800162D172DAF022C08A8072D0803182D0F17
:100A38001E2D1F2DA9072E0803182E0F242D252D36
:100A4800AA072F0803182F0AAB072B08A3002A08A8
:100A5800A2002908A1002808A0008030A8002808C2
:100A6800B006B309B30A3308031D3B2D3C2D592D9D
:100A78000130A007003003180130A1070030031827
:100A88000130A207003003180130A307592D2408AC
:100A9800A0022508031C250FA1022608031C260F07
:100AA800A2022708031C270FA302230822042104FB
:100AB8002004031D602D612D8D2D3308031D652D28
:100AC800662D8D2D0030A3000030A2000030A1005B
:100AD8000030A0000B2E0130A8000310A00DA10DBE
:100AE800A20DA30DA80B712DB31F7B2D7C2D7D2D81
:100AF8002014331C802D812D842D0314B30D862DD5
:100B08000310B30D320803198A2D8B2D8D2D01305A
:100B1800B202A21F902D912D6F2DB101B31F952DFB
:100B2800962DA42D33087F3903199B2D9C2D9F2DBD
:100B3800B101B10AA42D201CA22DA32DA42D9C2DFA
:100B480031080319A82DA92DDD2D0130A00700308B
:100B580003180130A107003003180130A207003044
:100B680003180130A307231CBA2DBB2DDD2D200847
:100B7800A8002108A9002208AA002308AB00013018
:100B8800AC002B0DAB0CAA0CA90CA80CAC0BC52DFA
:100B98002B08A3002A08A2002908A1002808A00001
:100BA800320A0319D82DD92DDD2D0130A8002808C7
:100BB800B207320A0319E12DE22DE72D3208031D91
:100BC800E62DE72DF52D0030A3000030A2000030FF
:100BD800A1000030A0003208031DF32DF42DF52DDF
:100BE800B001321CF82DF92DFB2DA217FF2D7F30F7
:100BF800A8002808A2053208A8000310280CA9009C
:100C08002908A300B01F092E0A2E0B2EA3170800CF
:100C180083120313DA00D0300A168A117C270A12CD
:100C28008A1183160313111B1A2E1B2E152E3B3007
:100C38000A168A116C270A128A1183160313111BCC
:100C4800262E272E212E0A168A111E270A128A11ED
:100C5800D1300A168A116C270A128A1183120313DB
:100C6800D801D90100300A128A1559200A128A11AE
:100C780083120313C80058084C3E840048088313A5
:100C880080000130D8070318D90A0030D90759085D
:100C9800803AFF0080307F02031D542E0530580231
:100CA800031C572E582E362E01300A128A15592049
:100CB8000A128A1183120313C8004808D1000A16C1
:100CC8008A1115270A128A11831203134D08C800C6
:100CD800C9014C08CA00CB014A08CB00CA01480820
:100CE8004A04D20049084B04D3004F08C800C90180
:100CF8004E08CA00CB014A08CB00CA0148084A047A
:100D0800D40049084B04D5005108C800C90150084F
:100D1800CA00CB014A08CB00CA0148084A04D600D9
:100D280049084B04D7003A30B1001C30B000D0302D
:100D3800AF008630AE005208A0005308A100003072
:100D4800A11BFF30A200A30001300A128A113C2720
:100D58000A128A11831203132308B5002208B4006B
:100D68002108B3002008B2000A128A1123200A12AF
:100D78008A11831203135A0884002E0883138000F3
:100D8800840A2F088000840A30088000840A310809
:100D980080003A30B1001C30B000D030AF0086304F
:100DA800AE005408A0005508A1000030A11BFF3078
:100DB800A200A30001300A128A113C270A128A11E4
:100DC800831203132308B5002208B4002108B300D6
:100DD8002008B2000A128A1123200A128A118312EB
:100DE80003135A08043E84002E0883138000840AE3
:100DF8002F088000840A30088000840A31088000A7
:100E08003A30B1001C30B000D030AF008630AE00B0
:100E18005608A0005708A1000030A11BFF30A2000F
:100E2800A30001300A128A113C270A128A11831280
:100E380003132308B5002208B4002108B3002008D2
:100E4800B2000A128A1123200A128A11831203138C
:100E58005A08083E84002E0883138000840A2F084D
:100E68008000840A30088000840A31088000080065
:100E780083120313A80028080319432F442F582F5F
:100E8800A31F472F482F582F2009AA002109AB007C
:100E98002209AC002309AD00AA0A0319AB0A0319F9
:100EA800AC0A0319AD0A602F2308AD002208AC0074
:100EB8002108AB002008AA002308220421042004EA
:100EC800031D672F682F712F0030A3000030A20088
:100ED8000030A1000030A000F72F9630A4002408AD
:100EE800A900832F0130A4002408A90701300310AA
:100EF800AD0CAC0CAB0CAA0CFF3E031D7B2FFE30D7
:100F08002D05031D882F892F762FA52F0130A400CA
:100F18002408A9070130AA07003003180130AB07DD
:100F2800003003180130AC07003003180130AD075A
:100F380001300310AD0CAC0CAB0CAA0CFF3E031D2A
:100F48009D2FFF302D05031DAA2FAB2F8A2FB72FFA
:100F58000130A9020130A4000310AA0DAB0DAC0D9D
:100F6800AD0DA40BB02FAC1BBA2FBB2FC12F023075
:100F780029020318C02FC12FAC2F2918C42FC52F41
:100F8800CD2FFF30AA05FF30AB057F30AC05FF3011
:100F9800AD050310A90C2908A400A501A601A70105
:100FA80018300310A40DA50DA60DA70DFF3E031DB7
:100FB800D52F2408AA042508AB042608AC04270862
:100FC800AD0428080319E92FEA2FEF2FA31FED2FEF
:100FD800EE2FEF2FAD172D08A3002C08A2002B0829
:100FE800A1002A08A000080064008001840A040601
:100FF800031900340406F92FFF1B0A2883137F18EE
:1010080083170008840A0319FF0A080008308A00B9
:101018000408840A820700340134003400340034A0
:101028000A340034003400346434003400340034AA
:10103800E8340334003400341034273400340034E6
:10104800A034863401340034403442340F34003440
:1010580080349634983400340034E134F53405345F
:101068000034CA349A343B3425346C3475342E3405
:10107800253436342E3436346C3475340034203408
:02108800003432
:10108E00F700F6013A30770203184E284F285728FA
:10109E0030307702031C542855285728F601F60ADB
:1010AE00760C080083120313A0000A168A11452736
:1010BE000A128A15831603139115141C67286828C3
:1010CE006428831203131308F6007608A100200883
:1010DE00031D7228732879280A168A1127270A12E7
:1010EE008A157E280A168A1130270A128A1583124B
:1010FE0003138C1D832884287E288C112108080058
:10110E00831203138C1E8C288D28B3281A08F00026
:10111E007008F5009D288501B32801308500B3289D
:10112E0002308500B32803308500B3287508F0001F
:10113E00F1017108003A0319A528B3287008613A25
:10114E0003199228033A03199428013A0319972890
:10115E00073A03199A28B32874088A007308840082
:10116E00720E8300FE0E7E0E0900831203133008EA
:10117E002F042E042D040319C528C6280929B501EC
:10118E00B50AD6280130F7000310AD0DAE0DAF0D28
:10119E00B00DF70BCB280130F7007708B507B01F5D
:1011AE00D928DA28C92830083402031DE8282F0868
:1011BE003302031DE8282E083202031DE8282D08ED
:1011CE003102031CEB28EC28FA282D08B1022E0858
:1011DE00031C2E0FB2022F08031C2F0FB302300870
:1011EE00031C300FB40201300310B00CAF0CAE0C68
:1011FE00AD0CFF3E031DFB280130B502031D08296F
:10120E000929DA283408B0003308AF003208AE00DE
:10121E003108AD00080083120313A601A701A60131
:10122E00A7013D2926082007A4002108A3000318C2
:10123E00A30AA61F2329A303831203132308A500C1
:10124E002508FF00240884000A128A1500200A12BD
:10125E008A150A168A1139270A128A150130831245
:10126E000313A6070318A70A0030A7072708803A1A
:10127E00A30080302302031D4629220826020318EC
:10128E0049294A2968298312031326082007A40036
:10129E002108A3000318A30AA61F5629A30383122D
:1012AE0003132308A5002508FF00240884000A1252
:1012BE008A1500200A128A15003A031D672968292B
:1012CE0019290800003083120313AB000030AA0066
:1012DE000030A9000030A8002308220421042004B5
:1012EE0003197A297B29C829AC01AC0A8B29013054
:1012FE00F6000310A00DA10DA20DA30DF60B802973
:10130E000130F6007608AC07A31F8E298F297E299F
:10131E000130F6000310A80DA90DAA0DAB0DF60BAA
:10132E00912923082702031DA62922082602031D40
:10133E00A62921082502031DA62920082402031C24
:10134E00A929AA29B9292008A4022108031C210FC2
:10135E00A5022208031C220FA6022308031C230F3A
:10136E00A702281401300310A30CA20CA10CA00C90
:10137E00FF3E031DBA290130AC02031DC729C8293F
:10138E008F292B08A3002A08A2002908A1002808EB
:10139E00A0000800831203133108031DD729D82992
:1013AE00072A2D08B2002E08B3002F08B40030080B
:1013BE00B50006300310B20DB30DB40DB50DFF3EE2
:1013CE00031DE1293508A3003408A2003308A1004B
:1013DE003208A0000030A7003D30A6000930A5005D
:1013EE000030A4000A128A1569210A128A15831286
:1013FE0003132008FF3E8316031399001811352A94
:10140E002D08B2002E08B3002F08B4003008B50026
:10141E0004300310B20DB30DB40DB50DFF3E031D18
:10142E00102A3508A3003408A2003308A1003208A0
:10143E00A0000030A7003D30A6000930A500003006
:10144E00A4000A128A1569210A128A15831203133F
:10145E002008FF3E831603139900181518139816CB
:10146E0018128312031398171813181618119810C0
:10147E008316031387170713080003108312031331
:10148E004A0D4B0DCC004C08D2005208031D502AB9
:10149E00512A5A2A0030CB000030CA000030C90051
:1014AE000030C800BF2A4808CC004908CD004A08C1
:1014BE00CE004B08CF001F300310CF0CCE0CCD0C3E
:1014CE00CC0CFF3E031D632A4C08D0005008D100FF
:1014DE00CA17FF30C805FF30C905FF30CA050030F6
:1014EE00CB059630D202D21F7D2A7E2A982A520828
:1014FE00803A973E0318842A852A862A512A01307B
:10150E000310CB0CCA0CC90CC80CFF3E031D872A56
:10151E000130CC004C08D207031D962A972A862A42
:10152E00AF2A20305202031C9D2A9E2AAA2A512A33
:10153E000130CC000310C80DC90DCA0DCB0DCC0B5C
:10154E00A12A0130D2025208031DAE2AAF2A9F2AC9
:10155E0051080319B32AB42ABF2AC809C909CA09EE
:10156E00CB09C80A0319C90A0319CA0A0319CB0AF7
:10157E0008000A168A110C270A128A15D0300A168C
:10158E008A116C270A128A156B300A168A116C277B
:10159E000A128A1501300A168A116C270A128A1548
:1015AE000A168A1115270A128A150A168A110C278D
:1015BE000A128A15D0300A168A116C270A128A1559
:1015CE0019300A168A116C270A128A1507300A1664
:1015DE008A116C270A128A150A168A1115270A1201
:1015EE008A150A168A110C270A128A15D0300A1685
:1015FE008A116C270A128A151A300A168A116C275C
:10160E000A128A1500300A168A116C270A128A15D8
:10161E000A168A1115270A128A150A168A110C271C
:10162E000A128A15D0300A168A116C270A128A15E8
:10163E001B300A168A116C270A128A1500300A16F8
:10164E008A116C270A128A150A168A1115270A1290
:10165E008A150A168A110C270A128A15D0300A1614
:10166E008A116C270A128A151C300A168A116C27E9
:10167E000A128A1500300A168A116C270A128A1568
:10168E000A168A1115270A128A15080000308312CD
:10169E0003132005A80000302105A9008030220583
:1016AE00AA007F302305AB002B082A042904280446
:1016BE00031D622B632B6B2B0030A3000030A200A6
:1016CE000030A1000030A00000302405A80000303A
:1016DE002505A90080302605AA007F302705AB001E
:1016EE002B082A0429042804031D7E2B7F2B872B0D
:1016FE000030A7000030A6000030A5000030A40086
:10170E00A31F8A2B8B2BAF2B0030A8000030A90013
:10171E000030AA008030AB002008A8022108031C6C
:10172E00210F9A2B9B2BA9022208031C220FA02B00
:10173E00A12BAA022308031C230FA62BA72BAB0257
:10174E002B08A3002A08A2002908A1002808A0003F
:10175E00A71FB22BB32BD72B0030A8000030A90047
:10176E000030AA008030AB002408A8022508031C14
:10177E00250FC22BC32BA9022608031C260FC82B2C
:10178E00C92BAA022708031C270FCE2BCF2BAB0287
:10179E002B08A7002A08A6002908A5002808A400DF
:1017AE008030A3068030A70627082302031DE92BED
:1017BE0026082202031DE92B25082102031DE92B11
:1017CE00240820020318EC2BED2BEF2B0310F02B2B
:1017DE0003140800A03083120313D9005908E20045
:1017EE005608A3005508A2005408A1005308A000F3
:1017FE000030A7000030A6000030A5000030A40085
:10180E000A128A154D230A128A1503180F2C102C52
:10181E00342C2D3083120313D9006208840059082A
:10182E00831380000130D9005908E2075608A3003F
:10183E005508A2005408A1005308A0000A168A11E8
:10184E005F270A128A15831203132308D600220873
:10185E00D5002108D4002008D300831203135608A4
:10186E00CB005508CA005408C9005308C8000A1214
:10187E008A1544220A128A15831203134B08E100BB
:10188E004A08E0004908DF004808DE006108A300AE
:10189E006008A2005F08A1005E08A00000300A12D6
:1018AE008A113C270A128A15831203132308B700E4
:1018BE002208B6002108B5002008B4005608BB0067
:1018CE005508BA005408B9005308B8000A168A1110
:1018DE008C270A128A15831203133708D60036088E
:1018EE00D5003508D4003408D3005608B500550885
:1018FE00B4005408B3005308B2004930B10074303C
:10190E00B0002430AF000030AE000A128A1123203E
:10191E000A128A15831203133108CB003008CA004D
:10192E002F08C9002E08C8000A128A1544220A126E
:10193E008A15831203134B08DD004A08DC004908A0
:10194E00DB004808DA002930D9005908B6006108D2
:10195E00BA006008B9005F08B8005E08B7005D08FD
:10196E00BE005C08BD005B08BC005A08BB006208E4
:10197E000A128A15B4250A128A15A03008000630FC
:10198E0083120313E5001330E400AD30E300E30BE4
:10199E00CE2CE40BCE2CE50BCE2C83160317880130
:1019AE008901003083120313B0000030AF002530E0
:1019BE00AE008030AD00B101B10A0A128A15D121F4
:1019CE000A128A158316031305108510831203134A
:1019DE00051085100A168A1152270A128A150A1244
:1019EE008A15C0220A128A15B1300A128A110C26E3
:1019FE000A128A1583160313340883120313D600B2
:101A0E0083160313330883120313D50083160313AF
:101A1E00320883120313D400831603133108831282
:101A2E000313D3000030D7000030D8000A128A15F5
:101A3E00F1230A128A1583120313E3006308E800E8
:101A4E006808A0000030A1000630E3006308A20081
:101A5E000A128A1512210A128A150430B13E840028
:101A6E008313000883120313D300840A0008D400E2
:101A7E00840A0008D500840A0008D6000030D7007A
:101A8E000030D8000A128A15F1230A128A15831221
:101A9E000313E3006308E8003430A0008030A10097
:101AAE000A30E3006308A2000A128A1512210A12F4
:101ABE008A15831203136808A0000030A1000630B7
:101ACE00E3006308A2000A128A1512210A128A156F
:101ADE000830B13E84008313000883120313D30031
:101AEE00840A0008D400840A0008D500840A00087D
:101AFE00D6000030D7000030D8000A128A15F12324
:101B0E000A128A1583120313E3006308E8003430C7
:101B1E00A0008030A1000A30E3006308A2000A1280
:101B2E008A1512210A128A15831203136808A0005F
:101B3E000030A1000630E3006308A2000A128A15E5
:101B4E0012210A128A150A300A168A1139270A1228
:101B5E008A15FB2C0A128A110E2883120313CA004F
:101B6E003730BF003F08C500E92F25304F06031957
:101B7E00C12DC22DCE2D4F08BF004A0884003F084C
:101B8E00831380000130BF003F08CA07E92FCB0145
:101B9E00CC01C401360884000A128A150A200A12E2
:101BAE008A150A128A1547200A128A15031CE02D7F
:101BBE00E12D212E83120313CB01CC010A308312A7
:101BCE000313A0000030A1004C08A3004B08A20094
:101BDE000A168A11B0270A128A15831203132108D6
:101BEE00CC002008CB00360884000A128A150A2081
:101BFE000A128A15D03EBF00FF3003180030C00015
:101C0E003F08CB070318CC0A4008CC070130BF00B1
:101C1E003F08B607360884000A128A150A200A12EF
:101C2E008A150A128A1547200A128A150318202EC1
:101C3E00212EE52D83120313360884000A128A150D
:101C4E000A200A128A152E3A031D2E2E2F2E732EBF
:101C5E000130BF003F08B607CD01CE01622E0A301B
:101C6E0083120313A0000030A1004E08A3004D08FC
:101C7E00A2000A168A11B0270A128A1583120313BC
:101C8E002108CE002008CD00360884000A128A15DD
:101C9E000A200A128A15D03EBF00FF30031800300A
:101CAE00C0003F08CD070318CE0A4008CE0701300A
:101CBE00BF003F08B607360884000A128A150A20AC
:101CCE000A128A150A128A1547200A128A15031853
:101CDE00712E722E362E7D2ECD01CE017D2E441606
:101CEE007D2EC030BF003F08C4049C2E01308312ED
:101CFE000313B607FF30360784000A128A150A202E
:101D0E000A128A15CF00BF00C0014008003A03191D
:101D1E00912EE92F3F08003A0319FB2F6C3A031955
:101D2E00762E193A0319782EE92F441E9F2EA02ED7
:101D3E00B32E4508840083130008C600840A0008E9
:101D4E00C700840A0008C800840A0008C9000430CD
:101D5E00BF003F08C507C52E450884008313000841
:101D6E00BF00840A0008C0003F08C6004008C70034
:101D7E00C801C9010230BF003F08C5074D084E0417
:101D8E00031DCA2ECB2ED92E4908480447044604FB
:101D9E00031DD22ED32ED92E0130CD070318CE0A15
:101DAE000030CE07CF01CF0A4F08BF00013003101D
:101DBE00BF0DFF3E031DDE2E03103F0D013E8400BE
:101DCE000A128A150A200A128A15C0000A128A15EA
:101DDE000A200A128A15C1000A128A150A200A124E
:101DEE008A15C2000A128A150A200A128A15C30021
:101DFE0043084902031D0D2F42084802031D0D2FF3
:101E0E0041084702031D0D2F400846020318102FEC
:101E1E00112F122F1C2F0130BF003F08CF070A30A1
:101E2E004F06031D1B2F1C2FDB2E4E08803A803CC5
:101E3E00031D232F4D084F020318262F272F2E2F59
:101E4E00831203134D08BF003F08CF00462F8312A5
:101E5E0003134E08803ABF0080303F02031D392F16
:101E6E004F084D0203183C2F3D2F462F83120313AC
:101E7E004F08BF00C0013F08CD004008CE008312BE
:101E8E0003134C08803A803C031D4F2F4B084F0222
:101E9E000318522F532F5F2F831203134F08BF00C7
:101EAE00C0013F08CB024008031CCC03CC02632FB9
:101EBE0083120313CB01CC014B084C040319682F7A
:101ECE00692FDB2F2030BF004A0884003F088313A0
:101EDE0080000130BF003F08CA07FF30CB07031850
:101EEE00CC0AFF30CC074B084C04031D7F2F802FEC
:101EFE00692FDB2F0030B0000030AF000030AE0095
:101F0E000A30AD004D08BF0001300310BF0DFF3E7B
:101F1E00031D8C2F03103F0D013E84000A128A15FB
:101F2E000A200A128A15A0000A128A150A200A121D
:101F3E008A15A1000A128A150A200A128A15A20011
:101F4E000A128A150A200A128A15A3004908A70048
:101F5E004808A6004708A5004608A4000A128A15DC
:101F6E0069210A128A15831203132308B40022086A
:101F7E00B3002108B2002008B1000A128A15BC2055
:101F8E000A128A15831203132D08303EC000400832
:101F9E00CF004F08BF004A0884003F08831380001B
:101FAE000130BF003F08CA07FF30CD070318CE0A25
:101FBE00FF30CE074D0A031DE82F4E0A031DE82FF2
:101FCE00E92F812F0130B607FF30360784000A1241
:101FDE008A150A200A128A15BF003F08CF004F0843
:101FEE00031DFA2FFB2FBC2D4A088400831380019A
:021FFE000800D9
:102E18000A168A1145270A168A11831603131114F4
:102E280008000A168A1145270A168A118316031301
:102E3800111508000A168A1145270A168A118316E1
:102E48000313911408008316031391121116111A13
:102E58002E2F2F2F2B2F08008316031391161116D0
:102E6800111A372F382F342F0800F6008316031352
:102E7800981C3F2F402F3A2F76088312031399008E
:102E880008008316031314194A2F4B2F452F1108D6
:102E98001F39031D502F512F452F0800283083124A
:102EA80003139400831603139101940109309300CE
:102EB8008715071608008312031323082204210428
:102EC80020040319682F692F6B2F8030A306080090
:102ED800F6000A168A1145270A168A1176088312FF
:102EE800031393008C1D792F7A2F762F8C110800ED
:102EF800F7000A168A1145270A168A118316031342
:102F0800111477080A168A116C270A168A11080004
:102F1800803083120313B7063B08A3003A08A200C7
:102F28003908A1003808A0003708A7003608A6000D
:102F38003508A5003408A4000A128A1184230A1649
:102F48008A11831203132308B7002208B600210848
:102F5800B5002008B4000800F601F7018312031336
:102F6800201CB72FB82FBE2F2208F6070318F70A20
:102F78002308F70701300310A20DA30DFF3E031D20
:102F8800BF2F01300310A10CA00CFF3E031DC62F5C
:102F980020082104031DD12FD22FB22F7708A100BA
:102FA8007608A000080083120313A600A201A3015B
:102FB8007608A000A1012008A4002108A500261C6D
:102FC800E62FE72FED2F2408A2070318A30A2508E8
:102FD800A30701300310A40DA50DFF3E031DEE2F1E
:102FE8000310A60C2608031DFA2FFB2FE32F230836
:082FF800F7002208F6000800B2
:04400E00D420FF3F7C
:00000001FF
