:020000040000FA
:060000000A128A110E280D
:10000800FE00030EF2000408F3000A08F4000A12C6
:100018008A15AF290A128A111128831367308400C0
:1000280070300A128A1585200A128A11A0308400BD
:10003800B1300A128A1585200A128A1183010A1220
:100048008A11E42E8312031331088039B60036086A
:10005800BB003108B6003607B7003708C100B01F2B
:100068003628372838284114410803193C283D28E8
:100078004C28410A031D412842284A280030B10073
:100088000030B0000030AF000030AE00B017542888
:100098000030B1000030B0000030AF000030AE00DA
:1000A80035088039B6003608BB063508B60036076D
:1000B800B7003708C000B41F6228632864284014BA
:1000C80040080319682869287828400A031D6D2804
:1000D8006E2876280030B5000030B4000030B30038
:1000E8000030B200B41780280030B5000030B400EA
:1000F8000030B3000030B200400803198428852876
:100108008A284108031D89288A2893280030B100CD
:100118000030B0000030AF000030AE00862B2E0853
:10012800B6003608F60034080A128A1558210A1251
:100138008A11770883120313C7007608C600460899
:10014800B600B701B801B9013908BF003808BE00C8
:100158003708BD003608BC004708B600B701B8012B
:10016800B9013908C5003808C4003708C300360883
:10017800C2002F08B6003608F60033080A128A159E
:1001880058210A128A11770883120313C7007608C8
:10019800C6004608B600B701B801B9013608BC0761
:1001A800370803110318013E0319DB28BD07380877
:1001B80003110318013E0319E228BE073908031189
:1001C8000318013E0319E928BF074708B600B7011D
:1001D800B801B9013608C207370803110318013EF0
:1001E8000319F728C307380803110318013E031938
:1001F800FE28C407390803110318013E031905290D
:10020800C5073008B6003608F60032080A128A1503
:1002180058210A128A11770883120313C700760837
:10022800C6004608B600B701B801B9013608BC07D0
:10023800370803110318013E03192329BD0738089D
:1002480003110318013E03192A29BE0739080311AF
:100258000318013E03193129BF074708B600B70143
:10026800B801B9013608C207370803110318013E5F
:1002780003193F29C307380803110318013E03195E
:100288004629C407390803110318013E03194D29EB
:10029800C5070830B6000310BC0DBD0DBE0DBF0D5F
:1002A800B60B4F292F08B6003608F60032080A1296
:1002B8008A1558210A128A11770883120313C70076
:1002C8007608C6004608B6004708B700B801B90165
:1002D8003608BC07370803110318013E03197529AE
:1002E800BD07380803110318013E03197C29BE070E
:1002F800390803110318013E03198329BF072E0883
:10030800B6003608F60033080A128A1558210A1270
:100318008A11770883120313C7007608C6004608B7
:10032800B6004708B700B801B9013608BC07370856
:1003380003110318013E0319A229BD073808031148
:100348000318013E0319A929BE0739080311031828
:10035800013E0319B029BF070830B6000310BC0DD1
:10036800BD0DBE0DBF0DB60BB2292E08B60036085E
:10037800F60032080A128A1558210A128A117708DB
:1003880083120313C7007608C6004608B60047085C
:10039800B700B801B9013608BC07370803110318BC
:1003A800013E0319D829BD07380803110318013E77
:1003B8000319DF29BE07390803110318013E031981
:1003C800E629BF072F08B6003608F60034080A12D7
:1003D8008A1558210A128A11770883120313C70055
:1003E8007608C6004608B6004708B700B801B90144
:1003F8003608C207370803110318013E0319052AF6
:10040800C307380803110318013E03190C2AC4074F
:10041800390803110318013E0319132AC5073008C8
:10042800B6003608F60033080A128A1558210A124F
:100438008A11770883120313C7007608C600460896
:10044800B6004708B700B801B9013608C20737082F
:1004580003110318013E0319322AC3073808031190
:100468000318013E0319392AC40739080311031870
:10047800013E0319402AC5073008B6003608F600C1
:1004880034080A128A1558210A128A117708831229
:100498000313C7007608C6004608B6004708B70029
:1004A800B801B90108300310B60DB70DB80DB90D74
:1004B800FF3E031D572A3608C207370803110318E1
:1004C800013E0319682AC307380803110318013EBF
:1004D80003196F2AC407390803110318013E0319C9
:1004E800762AC5073C08B6003D08B7003E08B800A4
:1004F8003F08B90018300310B90CB80CB70CB60C8B
:10050800FF3E031D7F2A3608C20737080311031868
:10051800013E0319902AC307380803110318013E46
:100528000319972AC407390803110318013E031950
:100538009E2AC5070830B6000310BC0DBD0DBE0DC0
:10054800BF0DB60BA02A41084007B600B701B70D8A
:100558003608823EC60037080318013EFF3EC70032
:10056800D22A0130B6000310C20DC30DC40DC50D4B
:10057800B60BB72ABF1FC12AC22AC32A42140130A8
:10058800B6000310BC0DBD0DBE0DBF0DB60BC52AC0
:10059800FF30C6070318C70AFF30C707C41FD52A8C
:1005A800D62AB52AC001BF1FDA2ADB2AF72AFF306C
:1005B8003C05B600FF303D05B700FF303E05B800EA
:1005C8007F303F05B9003908380437043604031969
:1005D800EE2AEF2AF22AC001C00AF72A421CF52A9D
:1005E800F62AF72AEF2A40080319FB2AFC2A2D2BA2
:1005F8000130C207003003180130C3070030031868
:100608000130C407003003180130C507451C0D2B05
:100618000E2B2D2B4208B6004308B7004408B8003B
:100628004508B9000130BA00390DB90CB80CB70C3F
:10063800B60CBA0B182B3908C5003808C40037089F
:10064800C3003608C2000130C6070318C70A0030C5
:10065800C7074708803AFF0080307F02031D362B0A
:10066800FF304602031C392B3A2B452B7F3083126F
:100678000313C5008030C4000030C3000030C2003E
:100688007A2B831203134708803AFF0080307F02D9
:10069800031D502B013046020318532B542B602B9B
:1006A800003083120313C5000030C4000030C300BB
:1006B8000030C200BB017A2B831203134608B60030
:1006C8003608C100FF30C205FF30C3057F30C405BE
:1006D8000030C505411C712B722B732BC4174108C0
:1006E800B6000310360CB7003708C5003B08B60043
:1006F8003608C5044508B1004408B0004308AF00F7
:100708004208AE0008008312031323088039A800AA
:100718002808B0002308A8002807A9002908B20063
:10072800A21F972B982B992B3214320803199D2B53
:100738009E2BAE2B320A031DA22BA32BAB2B003012
:10074800A3000030A2000030A1000030A000A217D2
:10075800A301B62B0030A3000030A2000030A10096
:100768000030A00027088039A8002808B100310807
:1007780030060319C02BC12BC22B30172708A8003D
:100788002807A9002908B100A61FCB2BCC2BCD2BFD
:10079800311431080319D12BD22BE22B310A031D56
:1007A800D62BD72BDF2B0030A7000030A600003057
:1007B800A5000030A400A617A701EA2B0030A70067
:1007C8000030A6000030A5000030A4003208310235
:1007D8000318EF2BF02B342C301FF32BF42BF82BB2
:1007E8008030A8002808B0063208A8002808B300FE
:1007F8003108A8002808B2003308A8002808B1006A
:100808002008A8002808B3002408A8002808A00089
:100818003308A8002808A4002108A8002808B30065
:100828002508A8002808A1003308A8002808A50062
:100838002208A8002808B3002608A8002808A20053
:100848003308A8002808A6002308A8002808B30031
:100858002708A8002808A3003308A8002808A7002C
:10086800B3013108A800A9012908AB003208280201
:10087800AA00031CAB032B08803AFF0080307F02DC
:10088800031D482C1A302A02031C4B2C4C2C892C93
:10089800831203132308220421042004031D552C6A
:1008A800572C0130582C0030A8002808B30000301D
:1008B800A3000030A2000030A1000030A0003108E1
:1008C800A8002808B200912C331C6B2C6C2C752CBA
:1008D8003308A8000310280C0138A9002908B30020
:1008E800772C0310B30C201C7A2C7B2C7C2CB31790
:1008F8000130A800230DA30CA20CA10CA00CA80B7E
:100908007E2C0130A8002808B2078312031331088F
:100918003202031C902C912C682C301B942C952CA3
:10092800E02C3208031D992C9A2CA32C0030A3002C
:100938000030A2000030A1000030A0000E2E2408D4
:10094800A007250803110318013E0319AC2CA107C1
:10095800260803110318013E0319B32CA207270820
:1009680003110318013E0319BA2CA307231CBD2C3D
:10097800BE2C942D331CC12CC22CCB2C3308A800C0
:100988000310280C0138A9002908B300CD2C031046
:10099800B30C201CD02CD12CD22CB3170130A800BA
:1009A800230DA30CA20CA10CA00CA80BD42C013075
:1009B800A8002808B207942D2308803AFF002708CA
:1009C800803A7F02031DF22C26082202031DF22C16
:1009D80025082102031DF22C240820020318F52CF7
:1009E800F62C4E2DFF30A800FF30A900FF30AA00DA
:1009F800FF30AB002408AC002508AD002608AE0087
:100A08002708AF002008AC022108031C210F0D2D78
:100A18000E2DAD022208031C220F132D142DAE0239
:100A28002308031C230F192D1A2DAF022C08A80721
:100A38002D0803182D0F212D222DA9072E08031884
:100A48002E0F272D282DAA072F0803182F0AAB07CA
:100A58002B08A3002A08A2002908A1002808A00042
:100A68008030A8002808B006B309B30A3308031D6C
:100A78003E2D3F2D5C2D0130A007003003180130BA
:100A8800A107003003180130A20700300318013015
:100A9800A3075C2D2408A0022508031C250FA1022A
:100AA8002608031C260FA2022708031C270FA302EF
:100AB8002308220421042004031D632D642D902D96
:100AC8003308031D682D692D902D0030A3000030D8
:100AD800A2000030A1000030A0000E2E0130A800B6
:100AE8000310A00DA10DA20DA30DA80B742DB31F0B
:100AF8007E2D7F2D802D2014331C832D842D872D52
:100B08000314B30D892D0310B30D320803198D2D6D
:100B18008E2D902D0130B202A21F932D942D722D8F
:100B2800B101B31F982D992DA72D33087F390319CB
:100B38009E2D9F2DA22DB101B10AA72D201CA52DF8
:100B4800A62DA72D9F2D31080319AB2DAC2DE02D17
:100B58000130A007003003180130A1070030031846
:100B68000130A207003003180130A307231CBD2D54
:100B7800BE2DE02D2008A8002108A9002208AA00FF
:100B88002308AB000130AC002B0DAB0CAA0CA90C50
:100B9800A80CAC0BC82D2B08A3002A08A200290812
:100BA800A1002808A000320A0319DB2DDC2DE02D56
:100BB8000130A8002808B207320A0319E42DE52DF0
:100BC800EA2D3208031DE92DEA2DF82D0030A30087
:100BD8000030A2000030A1000030A0003208031D40
:100BE800F62DF72DF82DB001321CFB2DFC2DFE2D16
:100BF800A217022E7F30A8002808A2053208A800F4
:100C08000310280CA9002908A300B01F0C2E0D2ED4
:100C18000E2EA3170800A03083120313D900590819
:100C2800E2005608A3005508A2005408A100530882
:100C3800A0000030A7000030A6000030A50000305A
:100C4800A4000A128A1554240A128A1103182D2E98
:100C58002E2E522E2D3083120313D90062088400E1
:100C68005908831380000130D9005908E207560853
:100C7800A3005508A2005408A1005308A0000A12B6
:100C88008A15E0200A128A11831203132308D6005A
:100C98002208D5002108D4002008D30083120313AA
:100CA8005608CB005508CA005408C9005308C800A4
:100CB8000A128A154B230A128A11831203134B084E
:100CC800E1004A08E0004908DF004808DE00610842
:100CD800A3006008A2005F08A1005E08A000003021
:100CE8000A128A15F8240A128A1183120313230898
:100CF800B7002208B6002108B5002008B40056083D
:100D0800BB005508BA005408B9005308B8000A12C5
:100D18008A150D210A128A11831203133708D60087
:100D28003608D5003508D4003408D3005608B50075
:100D38005508B4005408B3005308B2004930B10054
:100D48007430B0002430AF000030AE000A128A11AF
:100D580026200A128A11831203133108CB003008A7
:100D6800CA002F08C9002E08C8000A128A154B238A
:100D78000A128A11831203134B08DD004A08DC00AB
:100D88004908DB004808DA002930D9005908B600BC
:100D98006108BA006008B9005F08B8005E08B700CB
:100DA8005D08BE005C08BD005B08BC005A08BB00BB
:100DB80062080A128A15B4250A128A11A03008009E
:100DC800063083120313E5001330E400AD30E3006E
:100DD800E30BEC2EE40BEC2EE50BEC2E831603173D
:100DE80088018901003083120313B0000030AF007E
:100DF8002530AE008030AD00B101B10A0A128A1563
:100E0800D8220A128A11831603130510851083123B
:100E18000313051085100A128A15D3200A128A11A5
:100E28000A128A15C7230A128A11D0300A128A15A3
:100E3800FD200A128A1183160313111B242F252F54
:100E48001F2F3B300A128A15ED200A128A118316C9
:100E58000313111B302F312F2B2F0A128A159F20B5
:100E68000A128A11D1300A128A15ED200A128A1143
:100E780001300A128A1581210A128A11831203137A
:100E8800E300E40100300A128A1581210A128A114E
:100E980083120313E500E6016508E600E50163082F
:100EA8006504ED0064086604EE003A30B1001C30B9
:100EB800B000D030AF008630AE006D08A0006E08DC
:100EC800A1000030A11BFF30A200A30001300A12CC
:100ED8008A15F8240A128A11831203132308B5000D
:100EE8002208B4002108B3002008B2000A128A11AF
:100EF80026200A128A11831203133108EA003008E7
:100F0800E9002F08E8002E08E7006A08D6006908FB
:100F1800D5006808D4006708D3000030D700003037
:100F2800D8000A128A110F260A128A118312031393
:100F3800E3006308EF000630E3006308F7006F087A
:100F48000A128A15E4210A128A110A300A128A152D
:100F5800BA200A128A11192F0A128A110E2807308C
:100F68008A000408840A82070034013400340034FB
:100F780000340A340034003400346434003400345B
:100F88000034E83403340034003410342734003497
:100F98000034A034863401340034403442340F34F1
:100FA800003480349634983400340034E134F53415
:100FB80005340034CA349A343B3425346C347534DF
:100FC8002E34253436342E3436346C3475340034AB
:100FD800F700F6013A3077020318F32FF42FFC2FAD
:100FE80030307702031CF92FFA2FFC2FF601F60A8E
:040FF800760C08006B
:10110A0064008001840A0406031900340406862850
:10111A000A128A15C6200A128A1583160313111495
:10112A0008000A128A15C6200A128A1583160313A2
:10113A00111508000A128A15C6200A128A15831682
:10114A000313911408008316031391121116111A2E
:10115A00AF28B028AC28080083160313911611167D
:10116A00111AB828B928B5280800F60083160313FF
:10117A00981CC028C128BB2876088312031399003B
:10118A000800831603131419CB28CC28C628110883
:10119A001F39031DD128D228C628080028308312F7
:1011AA0003139400831603139101940109309300E9
:1011BA008715071608008312031323082204210443
:1011CA0020040319E928EA28EC288030A30608003D
:1011DA00F6000A128A15C6200A128A1576088312A0
:1011EA00031393008C1DFA28FB28F7288C1108009A
:1011FA00F7000A128A15C6200A128A1583160313E3
:10120A00111477080A128A15ED200A128A150800A5
:10121A00803083120313B7063B08A3003A08A200E2
:10122A003908A1003808A0003708A7003608A60028
:10123A003508A5003408A4000A128A1187230A1265
:10124A008A15831203132308B7002208B60021085F
:10125A00B5002008B4000800F601F7018312031351
:10126A00201C382939293F292208F6070318F70ACA
:10127A002308F70701300310A20DA30DFF3E031D3B
:10128A00402901300310A10CA00CFF3E031D472981
:10129A0020082104031D5229532933297708A10064
:1012AA007608A000080083120313A600A201A30176
:1012BA007608A000A1012008A4002108A500261C88
:1012CA00672968296E292408A2070318A30A250892
:1012DA00A30701300310A40DA50DFF3E031D6F29BE
:1012EA000310A60C2608031D7B297C2964292308E0
:1012FA00F7002208F600080083120313A0000A125E
:10130A008A15C6200A128A15831603139115141C0E
:10131A008F2990298C29831203131308F600760863
:10132A00A1002008031D9A299B29A1290A128A15BE
:10133A00A8200A128A15A6290A128A15B1200A12A9
:10134A008A15831203138C1DAB29AC29A6298C118B
:10135A0021080800831203138C1EB429B529DB293E
:10136A001A08F0007008F500C5298501DB2901304B
:10137A008500DB2902308500DB2903308500DB2963
:10138A007508F000F1017108003A0319CD29DB292B
:10139A007008613A0319BA29033A0319BC29013AB8
:1013AA000319BF29073A0319C229DB2974088A00DD
:1013BA0073088400720E8300FE0E7E0E09008312EB
:1013CA000313A100A201A301A201A301FF2922087C
:1013DA002107A0002008840000080A128A15BA20F2
:1013EA000A128A15013083120313A2070318A30AEB
:1013FA000030A3072308803AA00080302002031D92
:10140A00082A7708220203180B2A0C2A192A83129F
:10141A00031322082107A000200884008313000870
:10142A00031D182A192AEC2908008312031330080D
:10143A002F042E042D040319232A242A672AB5010E
:10144A00B50A342A0130F7000310AD0DAE0DAF0D09
:10145A00B00DF70B292A0130F7007708B507B01F3E
:10146A00372A382A272A30083402031D462A2F0829
:10147A003302031D462A2E083202031D462A2D086E
:10148A003102031C492A4A2A582A2D08B1022E0879
:10149A00031C2E0FB2022F08031C2F0FB3023008B1
:1014AA00031C300FB40201300310B00CAF0CAE0CA9
:1014BA00AD0CFF3E031D592A0130B502031D662AF1
:1014CA00672A382A3408B0003308AF003208AE0061
:1014DA003108AD000800003083120313AB0000305E
:1014EA00AA000030A9000030A80023082204210421
:1014FA0020040319812A822ACF2AAC01AC0A922A33
:10150A000130F6000310A00DA10DA20DA30DF60BDC
:10151A00872A0130F6007608AC07A31F952A962A77
:10152A00852A0130F6000310A80DA90DAA0DAB0DEE
:10153A00F60B982A23082702031DAD2A2208260241
:10154A00031DAD2A21082502031DAD2A2008240205
:10155A00031CB02AB12AC02A2008A4022108031CAD
:10156A00210FA5022208031C220FA6022308031C2E
:10157A00230FA702281401300310A30CA20CA10CFC
:10158A00A00CFF3E031DC12A0130AC02031DCE2A66
:10159A00CF2A962A2B08A3002A08A2002908A1000C
:1015AA002808A0000800831203133108031DDE2A4D
:1015BA00DF2A0E2B2D08B2002E08B3002F08B40024
:1015CA003008B50006300310B20DB30DB40DB50DD9
:1015DA00FF3E031DE82A3508A3003408A200330899
:1015EA00A1003208A0000030A7003D30A600093053
:1015FA00A5000030A4000A128A1570220A128A1560
:10160A00831203132008FF3E83160313990018114F
:10161A003C2B2D08B2002E08B3002F08B400300866
:10162A00B50004300310B20DB30DB40DB50DFF3E75
:10163A00031D172B3508A3003408A2003308A100A4
:10164A003208A0000030A7003D30A6000930A500EE
:10165A000030A4000A128A1570220A128A1583120F
:10166A0003132008FF3E8316031399001815181355
:10167A0098161812831203139817181318161811AC
:10168A009810831603138717071308000310831291
:10169A0003134A0D4B0DCC004C08D2005208031D0F
:1016AA00572B582B612B0030CB000030CA0000307A
:1016BA00C9000030C800C62B4808CC004908CD0034
:1016CA004A08CE004B08CF001F300310CF0CCE0CB7
:1016DA00CD0CCC0CFF3E031D6A2B4C08D0005008E1
:1016EA00D100CA17FF30C805FF30C905FF30CA0547
:1016FA000030CB059630D202D21F842B852B9F2B2C
:10170A005208803A973E03188B2B8C2B8D2B582B23
:10171A0001300310CB0CCA0CC90CC80CFF3E031DC8
:10172A008E2B0130CC004C08D207031D9D2B9E2B1B
:10173A008D2BB62B20305202031CA42BA52BB12BC8
:10174A00582B0130CC000310C80DC90DCA0DCB0DA2
:10175A00CC0BA82B0130D2025208031DB52BB62B95
:10176A00A62B51080319BA2BBB2BC62BC809C909CA
:10177A00CA09CB09C80A0319C90A0319CA0A0319EB
:10178A00CB0A08000A128A158D200A128A15D0304F
:10179A000A128A15ED200A128A156B300A128A1566
:1017AA00ED200A128A1501300A128A15ED200A1252
:1017BA008A150A128A1596200A128A150A128A1599
:1017CA008D200A128A15D0300A128A15ED200A12C3
:1017DA008A1519300A128A15ED200A128A1507305D
:1017EA000A128A15ED200A128A150A128A159620FB
:1017FA000A128A150A128A158D200A128A15D03001
:10180A000A128A15ED200A128A151A300A128A1546
:10181A00ED200A128A1500300A128A15ED200A12E2
:10182A008A150A128A1596200A128A150A128A1528
:10183A008D200A128A15D0300A128A15ED200A1252
:10184A008A151B300A128A15ED200A128A150030F1
:10185A000A128A15ED200A128A150A128A1596208A
:10186A000A128A150A128A158D200A128A15D03090
:10187A000A128A15ED200A128A151C300A128A15D4
:10188A00ED200A128A1500300A128A15ED200A1272
:10189A008A150A128A1596200A128A15080000303B
:1018AA00831203132005A80000302105A900803007
:1018BA002205AA007F302305AB002B082A0429043D
:1018CA002804031D692C6A2C722C0030A3000030F6
:1018DA00A2000030A1000030A00000302405A800BA
:1018EA0000302505A90080302605AA007F3027058B
:1018FA00AB002B082A0429042804031D852C862CF6
:10190A008E2C0030A7000030A6000030A500003061
:10191A00A400A31F912C922CB62C0030A8000030F2
:10192A00A9000030AA008030AB002008A8022108D4
:10193A00031C210FA12CA22CA9022208031C220F8E
:10194A00A72CA82CAA022308031C230FAD2CAE2C0B
:10195A00AB022B08A3002A08A2002908A100280824
:10196A00A000A71FB92CBA2CDE2C0030A80000302A
:10197A00A9000030AA008030AB002408A80225087C
:10198A00031C250FC92CCA2CA9022608031C260FE2
:10199A00CF2CD02CAA022708031C270FD52CD62C13
:1019AA00AB022B08A7002A08A6002908A5002808C8
:1019BA00A4008030A3068030A70627082302031D4F
:1019CA00F02C26082202031DF02C25082102031DF3
:1019DA00F02C240820020318F32CF42CF62C031004
:1019EA00F72C0314080083120313A800280803190C
:1019FA00FF2C002D142DA31F032D042D142D2009B7
:101A0A00AA002109AB002209AC002309AD00AA0AE9
:101A1A000319AB0A0319AC0A0319AD0A1C2D2308D2
:101A2A00AD002208AC002108AB002008AA00230858
:101A3A00220421042004031D232D242D2D2D0030E2
:101A4A00A3000030A2000030A1000030A000B32D96
:101A5A009630A4002408A9003F2D0130A4002408D0
:101A6A00A90701300310AD0CAC0CAB0CAA0CFF3E5D
:101A7A00031D372DFE302D05031D442D452D322D16
:101A8A00612D0130A4002408A9070130AA070030FB
:101A9A0003180130AB07003003180130AC070030DF
:101AAA0003180130AD0701300310AD0CAC0CAB0CC0
:101ABA00AA0CFF3E031D592DFF302D05031D662D6F
:101ACA00672D462D732D0130A9020130A4000310A1
:101ADA00AA0DAB0DAC0DAD0DA40B6C2DAC1B762D68
:101AEA00772D7D2D0230290203187C2D7D2D682D3E
:101AFA002918802D812D892DFF30AA05FF30AB05CD
:101B0A007F30AC05FF30AD050310A90C2908A400ED
:101B1A00A501A601A70118300310A40DA50DA60D55
:101B2A00A70DFF3E031D912D2408AA042508AB0426
:101B3A002608AC042708AD0428080319A52DA62DEC
:101B4A00AB2DA31FA92DAA2DAB2DAD172D08A300D0
:101B5A002C08A2002B08A1002A08A0000800831262
:101B6A000313CA003730BF003F08C500E92F2530EC
:101B7A004F060319C12DC22DCE2D4F08BF004A08AA
:101B8A0084003F08831380000130BF003F08CA0762
:101B9A00E92FCB01CC01C401360884000A128A114C
:101BAA00B3270A128A150A128A11EC270A128A1511
:101BBA00031CE02DE12D212E83120313CB01CC014E
:101BCA000A3083120313A0000030A1004C08A300BE
:101BDA004B08A2000A128A1531210A128A158312A9
:101BEA0003132108CC002008CB00360884000A120F
:101BFA008A11B3270A128A15D03EBF00FF30031894
:101C0A000030C0003F08CB070318CC0A4008CC07B5
:101C1A000130BF003F08B607360884000A128A114D
:101C2A00B3270A128A150A128A11EC270A128A1590
:101C3A000318202E212EE52D831203133608840063
:101C4A000A128A11B3270A128A152E3A031D2E2E5A
:101C5A002F2E732E0130BF003F08B607CD01CE01EB
:101C6A00622E0A3083120313A0000030A1004E082E
:101C7A00A3004D08A2000A128A1531210A128A15F8
:101C8A00831203132108CE002008CD0036088400F1
:101C9A000A128A11B3270A128A15D03EBF00FF30F2
:101CAA0003180030C0003F08CD070318CE0A4008C9
:101CBA00CE070130BF003F08B607360884000A1273
:101CCA008A11B3270A128A150A128A11EC270A12F4
:101CDA008A150318712E722E362E7D2ECD01CE0155
:101CEA007D2E44167D2EC030BF003F08C4049C2EB2
:101CFA00013083120313B607FF30360784000A1235
:101D0A008A11B3270A128A15CF00BF00C001400802
:101D1A00003A0319912EE92F3F08003A0319FB2FC5
:101D2A006C3A0319762E193A0319782EE92F441EB4
:101D3A009F2EA02EB32E4508840083130008C600E8
:101D4A00840A0008C700840A0008C800840A000838
:101D5A00C9000430BF003F08C507C52E45088400E6
:101D6A0083130008BF00840A0008C0003F08C600A9
:101D7A004008C700C801C9010230BF003F08C507B3
:101D8A004D084E04031DCA2ECB2ED92E49084804ED
:101D9A0047044604031DD22ED32ED92E0130CD0777
:101DAA000318CE0A0030CE07CF01CF0A4F08BF0072
:101DBA0001300310BF0DFF3E031DDE2E03103F0D41
:101DCA00013E84000A128A11B3270A128A15C0003A
:101DDA000A128A11B3270A128A15C1000A128A1135
:101DEA00B3270A128A15C2000A128A11B3270A12E5
:101DFA008A15C30043084902031D0D2F42084802F1
:101E0A00031D0D2F41084702031D0D2F40084602EE
:101E1A000318102F112F122F1C2F0130BF003F085B
:101E2A00CF070A304F06031D1B2F1C2FDB2E4E082F
:101E3A00803A803C031D232F4D084F020318262F9A
:101E4A00272F2E2F831203134D08BF003F08CF0000
:101E5A00462F831203134E08803ABF0080303F0298
:101E6A00031D392F4F084D0203183C2F3D2F462FD3
:101E7A00831203134F08BF00C0013F08CD0040087A
:101E8A00CE00831203134C08803A803C031D4F2F67
:101E9A004B084F020318522F532F5F2F831203133D
:101EAA004F08BF00C0013F08CB024008031CCC0307
:101EBA00CC02632F83120313CB01CC014B084C04D1
:101ECA000319682F692FDB2F2030BF004A088400CE
:101EDA003F08831380000130BF003F08CA07FF3064
:101EEA00CB070318CC0AFF30CC074B084C04031D60
:101EFA007F2F802F692FDB2F0030B0000030AF001A
:101F0A000030AE000A30AD004D08BF0001300310AA
:101F1A00BF0DFF3E031D8C2F03103F0D013E8400B1
:101F2A000A128A11B3270A128A15A0000A128A1104
:101F3A00B3270A128A15A1000A128A11B3270A12B4
:101F4A008A15A2000A128A11B3270A128A15A30057
:101F5A004908A7004808A6004708A5004608A400A3
:101F6A000A128A1570220A128A1583120313230889
:101F7A00B4002208B3002108B2002008B1000A12F6
:101F8A008A151A220A128A15831203132D08303E63
:101F9A00C0004008CF004F08BF004A0884003F082D
:101FAA00831380000130BF003F08CA07FF30CD0706
:101FBA000318CE0AFF30CE074D0A031DE82F4E0A3A
:101FCA00031DE82FE92F812F0130B607FF303607AE
:101FDA0084000A128A11B3270A128A15BF003F0821
:101FEA00CF004F08031DFA2FFB2FBC2D4A0884008F
:061FFA00831380010800C2
:04400E00D420FF3F7C
:00000001FF
