:020000040000FA
:060000000A128A110E280D
:10000800FE00030EFA000408FB000A08FC000A12AE
:100018008A11002A0A128A111128F001F101F2014D
:10002800F301F401F501F60183120313B701B801D6
:10003800B901BA01BB01BC01BD01BE0183010A12AD
:100048008A11262883160317880189010030831234
:100058000313B1000030B0002530AF008030AE008F
:10006800B201B20A0A128A1125210A128A118B17C3
:100078000B17831603138C160713871705108510A3
:1000880083120313051085100A128A114C220A12D2
:100098008A110A128A1178220A128A11D030831220
:1000A8000313A0000030A1000A128A1165220A1267
:1000B8008A11193083120313A0000030A1000A121C
:1000C8008A1165220A128A11073083120313A000CD
:1000D8000030A1000A128A1165220A128A110A1236
:1000E8008A116F220A128A110A128A1178220A12B8
:1000F8008A11D03083120313A0000030A1000A1225
:100108008A1165220A128A116B3083120313A00028
:100118000030A1000A128A1165220A128A110130E0
:1001280083120313A0000030A1000A128A1165226D
:100138000A128A110A128A116F220A128A110A12E5
:100148008A1178220A128A11D03083120313A00070
:100158000030A1000A128A1165220A128A111A3087
:1001680083120313A0000030A1000A128A1165222D
:100178000A128A11003083120313A000A1000A1288
:100188008A1165220A128A110A128A116F220A122A
:100198008A110A128A1178220A128A11D03083121F
:1001A8000313A0000030A1000A128A1165220A1266
:1001B8008A111B3083120313A0000030A1000A1219
:1001C8008A1165220A128A11003083120313A000D3
:1001D800A1000A128A1165220A128A110A128A11CA
:1001E8006F220A128A110A128A1178220A128A11B7
:1001F800D03083120313A0000030A1000A128A1124
:1002080065220A128A111C3083120313A0000030E1
:10021800A1000A128A1165220A128A11003083127B
:100228000313A000A1000A128A1165220A128A117A
:100238000A128A116F220A128A1121290A128A11B6
:100248000E28831203133208031D2B292C295B293E
:100258002E08B3002F08B4003008B5003108B600E6
:1002680006300310B30DB40DB50DB60DFF3E031DDA
:1002780035293608A3003508A2003408A100330840
:10028800A0000030A7003D30A6000930A5000030CE
:10029800A4000A128A1198210A128A1183120313E0
:1002A8002008FF3E831603139900181189292E0888
:1002B800B3002F08B4003008B5003108B600043088
:1002C8000310B30DB40DB50DB60DFF3E031D642923
:1002D8003608A3003508A2003408A1003308A0009E
:1002E8000030A7003D30A6000930A5000030A4006A
:1002F8000A128A1198210A128A11831203132008FC
:10030800FF3E831603139900181518139816181230
:1003180083120313981718131816181198108316B8
:100328000313871707130800003083120313AC0068
:100338000030AB000030AA000030A90023082204D6
:10034800210420040319A929AA29F729AD01AD0A16
:10035800BA290130A8000310A00DA10DA20DA30D0C
:10036800A80BAF290130A8002808AD07A31FBD2995
:10037800BE29AD290130A8000310A90DAA0DAB0DA7
:10038800AC0DA80BC02923082702031DD529220874
:100398002602031DD52921082502031DD529200879
:1003A8002402031CD829D929E8292008A4022108F5
:1003B800031C210FA5022208031C220FA6022308F2
:1003C800031C230FA702291401300310A30CA20C4D
:1003D800A10CA00CFF3E031DE9290130AD02031D4D
:1003E800F629F729BE292C08A3002B08A2002A0801
:1003F800A1002908A0000800831203138C1E052AF7
:10040800062A362A1A08F8007808FD001D2A8501F0
:10041800362A01308500362A02308500362A033014
:100428008500362A73300A128A1159220A128A1153
:10043800362A7D08F800F9017908003A0319252AB7
:10044800362A7808613A03190B2A033A03190D2A48
:10045800013A0319102A073A0319132A1C3A0319F7
:10046800162A362A7C088A007B0884007A0E8300C4
:10047800FE0E7E0E0900831603131419442A452A1A
:100488003F2A11081F39031D4A2A4B2A3F2A080010
:1004980028308312031394008316031391019401E7
:1004A80063309300871507160800F70083160313B7
:1004B800981C5F2A602A5A2A770883120313990026
:1004C80008000A128A113F220A128A1183120313A2
:1004D8002008930008000A128A113F220A128A1182
:1004E80083160313111508000A128A113F220A12F3
:0A04F8008A11831603131114080083
:04400E00D420FF3F7C
:00000001FF
